:020000040800F2
:1000000000000220296500087D5A0008835A000874
:10001000895A00088F5A0008955A0008000000000D
:1000200000000000000000000000000001030108C3
:100030009B5A00080000000051050108B90501089D
:100040007965000879650008796500087965000818
:100050007965000879650008796500087965000808
:1000600079650008796500087965000879650008F8
:10007000A95A0008796500087965000879650008C3
:1000800079650008796500087965000879650008D8
:10009000BD5A0008D15A0008796500087965000842
:1000A00079650008796500087965000879650008B8
:1000B000E55A000879650008796500087965000847
:1000C0007965000879650008796500087965000898
:1000D00079650008F95A0008796500080D5B000889
:1000E0007965000879650008796500087965000878
:1000F0007965000879650008796500087965000868
:100100007965000879650008796500087965000857
:100110007965000879650008796500087965000847
:10012000215B0008355B0008495B00085D5B000847
:100130007965000879650008796500087965000827
:10014000715B0008855B000879650008995B000811
:10015000796500087965000879650008AD5B0008DD
:1001600079650008796500087965000879650008F7
:1001700079650008796500087965000800000000CD
:080180007965000879650008AB
:1001900010B5054C237833B9044B13B10448AFF3C1
:1001A00000800123237010BD18070020000000000C
:1001B000A88A010808B5034B1BB103490348AFF3F4
:1001C000008008BD000000001C070020A88A01086C
:1001D00081F0004102E000BF83F0004330B54FEAF8
:1001E00041044FEA430594EA050F08BF90EA020F65
:1001F0001FBF54EA000C55EA020C7FEA645C7FEAF8
:10020000655C00F0E2804FEA5454D4EB5555B8BF1A
:100210006D420CDD2C4480EA020281EA030382EA8B
:10022000000083EA010180EA020281EA0303362D1D
:1002300088BF30BD11F0004F4FEA01314FF4801CF0
:100240004CEA113102D0404261EB410113F0004F02
:100250004FEA03334CEA133302D0524263EB4303B9
:1002600094EA050F00F0A780A4F10104D5F1200E57
:100270000DDB02FA0EFC22FA05F2801841F10001B2
:1002800003FA0EF2801843FA05F359410EE0A5F186
:1002900020050EF1200E012A03FA0EFC28BF4CF0B7
:1002A000020C43FA05F3C01851EBE37101F000456D
:1002B00007D54FF0000EDCF1000C7EEB00006EEB7A
:1002C0000101B1F5801F1BD3B1F5001F0CD3490804
:1002D0005FEA30004FEA3C0C04F101044FEA44525B
:1002E00012F5800F80F09A80BCF1004F08BF5FEAE2
:1002F000500C50F1000041EB045141EA050130BDC2
:100300005FEA4C0C404141EB0101013C28BFB1F5D3
:10031000801FE9D291F0000F04BF01460020B1FA1E
:1003200081F308BF2033A3F10B03B3F120020CDAF1
:100330000C3208DD02F1140CC2F10C0201FA0CF0CF
:1003400021FA02F10CE002F11402D8BFC2F1200C34
:1003500001FA02F120FA0CFCDCBF41EA0C019040EA
:10036000E41AA2BF01EB0451294330BD6FEA040433
:100370001F3C1CDA0C340EDC04F11404C4F120021E
:1003800020FA04F001FA02F340EA030021FA04F330
:1003900045EA030130BDC4F10C04C4F1200220FA87
:1003A00002F001FA04F340EA0300294630BD21FAC5
:1003B00004F0294630BD94F0000F83F4801306BF8B
:1003C00081F480110134013D4EE77FEA645C18BF7F
:1003D0007FEA655C29D094EA050F08BF90EA020F16
:1003E00005D054EA000C04BF1946104630BD91EA0E
:1003F000030F1EBF0021002030BD5FEA545C05D111
:100400004000494128BF41F0004130BD14F580044F
:100410003CBF01F5801130BD01F0004545F0FE41C3
:1004200041F470014FF0000030BD7FEA645C1ABFF8
:10043000194610467FEA655C1CBF0B46024650EA2F
:10044000013406BF52EA033591EA030F41F400215B
:1004500030BD00BF90F0000F04BF0021704730B5E1
:100460004FF4806404F132044FF000054FF00001B6
:1004700050E700BF90F0000F04BF0021704730B577
:100480004FF4806404F1320410F0004548BF40424C
:100490004FF000013EE700BF42004FEAE2014FEAA1
:1004A00031014FEA02701FBF12F07F4393F07F4F7C
:1004B00081F06051704732F07F4208BF704793F07F
:1004C0007F4F04BF41F40021704730B54FF4607492
:1004D00001F0004521F000411CE700BF50EA010295
:1004E00008BF704730B54FF000050AE050EA01023E
:1004F00008BF704730B511F0004502D5404261EBAE
:1005000041014FF4806404F132045FEA915C3FF4EE
:10051000D8AE4FF003025FEADC0C18BF03325FEA8B
:10052000DC0C18BF033202EBDC02C2F1200300FA3C
:1005300003FC20FA02F001FA03FE40EA0E0021FA61
:1005400002F11444BDE600BF70B54FF0FF0C4CF44F
:10055000E06C1CEA11541DBF1CEA135594EA0C0F01
:1005600095EA0C0F00F0DEF82C4481EA030621EA3C
:100570004C5123EA4C5350EA013518BF52EA033577
:1005800041F4801143F4801338D0A0FB02CE4FF029
:100590000005E1FB02E506F00042E0FB03E54FF059
:1005A0000006E1FB03569CF0000F18BF4EF0010E51
:1005B000A4F1FF04B6F5007F64F5407404D25FEA4D
:1005C0004E0E6D4146EB060642EAC62141EA555100
:1005D0004FEAC52040EA5E504FEACE2EB4F1FD0C42
:1005E00088BFBCF5E06F1ED8BEF1004F08BF5FEAC0
:1005F000500E50F1000041EB045170BD06F0004672
:1006000046EA010140EA020081EA0301B4EB5C041E
:10061000C2BFD4EB0C0541EA045170BD41F4801116
:100620004FF0000E013C00F3AB8014F1360FDEBF3B
:10063000002001F0004170BDC4F10004203C35DA17
:100640000C341BDC04F11404C4F1200500FA05F39A
:1006500020FA04F001FA05F240EA020001F000423B
:1006600021F0004110EBD37021FA04F642EB0601B1
:100670005EEA430E08BF20EAD37070BDC4F10C04DB
:10068000C4F1200500FA04F320FA05F001FA04F29F
:1006900040EA020001F0004110EBD37041F100018B
:1006A0005EEA430E08BF20EAD37070BDC4F1200596
:1006B00000FA05F24EEA020E20FA04F301FA05F2FE
:1006C00043EA020321FA04F001F0004121FA04F2A6
:1006D00020EA020000EBD3705EEA430E08BF20EA76
:1006E000D37070BD94F0000F0FD101F000464000B0
:1006F00041EB010111F4801F08BF013CF7D041EA32
:10070000060195F0000F18BF704703F00046520035
:1007100043EB030313F4801F08BF013DF7D043EA06
:100720000603704794EA0C0F0CEA135518BF95EABC
:100730000C0F0CD050EA410618BF52EA4306D1D143
:1007400081EA030101F000414FF0000070BD50EA62
:10075000410606BF1046194652EA430619D094EAEC
:100760000C0F02D150EA013613D195EA0C0F05D1D6
:1007700052EA03361CBF104619460AD181EA03012A
:1007800001F0004141F0FE4141F470014FF00000E2
:1007900070BD41F0FE4141F4780170BD70B54FF07D
:1007A000FF0C4CF4E06C1CEA11541DBF1CEA1355FD
:1007B00094EA0C0F95EA0C0F00F0A7F8A4EB0504DF
:1007C00081EA030E52EA03354FEA013100F08880D6
:1007D0004FEA03334FF0805545EA131343EA12639F
:1007E0004FEA022245EA111545EA10654FEA002654
:1007F0000EF000419D4208BF964244F1FD0404F50D
:10080000407402D25B084FEA3202B61A65EB030568
:100810005B084FEA32024FF480104FF4002CB6EB25
:10082000020E75EB030E22BFB61A754640EA0C00A5
:100830005B084FEA3202B6EB020E75EB030E22BFE5
:10084000B61A754640EA5C005B084FEA3202B6EB26
:10085000020E75EB030E22BFB61A754640EA9C00E5
:100860005B084FEA3202B6EB020E75EB030E22BFB5
:10087000B61A754640EADC0055EA060E18D04FEA73
:10088000051545EA16754FEA06164FEAC30343EA13
:1008900052734FEAC2025FEA1C1CC0D111F4801FE0
:1008A0000BD141EA00014FF000004FF0004CB6E7D9
:1008B00011F4801F04BF01430020B4F1FD0C88BF78
:1008C000BCF5E06F3FF6AFAEB5EB030C04BFB6EB83
:1008D000020C5FEA500C50F1000041EB045170BD76
:1008E0000EF0004E4EEA113114EB5C04C2BFD4EBA3
:1008F0000C0541EA045170BD41F480114FF0000E27
:10090000013C90E645EA060E8DE60CEA135594EAA2
:100910000C0F08BF95EA0C0F3FF43BAF94EA0C0FA5
:100920000AD150EA01347FF434AF95EA0C0F7FF41A
:1009300025AF104619462CE795EA0C0F06D152EA6E
:1009400003353FF4FDAE1046194622E750EA410652
:1009500018BF52EA43067FF4C5AE50EA41047FF463
:100960000DAF52EA43057FF4EBAE12E74FF0FF3CC8
:1009700006E000BF4FF0010C02E000BF4FF0010C99
:100980004DF804CD4FEA410C7FEA6C5C4FEA430C12
:1009900018BF7FEA6C5C1BD001B050EA410C0CBF61
:1009A00052EA430C91EA030F02BF90EA020F0020C3
:1009B000704710F1000F91EA030F58BF994208BF2A
:1009C00090422CBFD8176FEAE37040F001007047E7
:1009D0004FEA410C7FEA6C5C02D150EA013C07D13E
:1009E0004FEA430C7FEA6C5CD6D152EA033CD3D089
:1009F0005DF8040B704700BF8446104662468C4683
:100A00001946634600E000BF01B5FFF7B7FF0028B5
:100A100048BF10F1000F01BD4DF808EDFFF7F4FFDE
:100A20000CBF012000205DF808FB00BF4DF808ED69
:100A3000FFF7EAFF34BF012000205DF808FB00BF8C
:100A40004DF808EDFFF7E0FF94BF012000205DF8AE
:100A500008FB00BF4DF808EDFFF7CEFF94BF012063
:100A600000205DF808FB00BF4DF808EDFFF7C4FF5C
:100A700034BF012000205DF808FB00BF4FEA4102AF
:100A800012F5001215D211D56FF47873B3EB6252E0
:100A900012D94FEAC12343F0004343EA505311F007
:100AA000004F23FA02F018BF404270474FF0000099
:100AB000704750EA013005D111F0004008BF6FF0D7
:100AC000004070474FF00000704700BF4FEA4102FE
:100AD000B2F1E04324BFB3F5001CDCF1FE5C0DD99C
:100AE00001F0004C4FEAC0024CEA5070B2F1004FE6
:100AF00040EB830008BF20F00100704711F0804FE9
:100B000021D113F13872BCBF01F00040704741F4AD
:100B100080114FEA5252C2F11802C2F1200C10FAB1
:100B20000CF320FA02F018BF40F001004FEAC12395
:100B30004FEAD32303FA0CFC40EA0C0023FA02F339
:100B40004FEA4303CCE77FEA625307D150EA01330F
:100B50001EBF4FF0FE4040F44000704701F00040DF
:100B600040F0FE4040F40000704700BF53B94AB95E
:100B7000002908BF00281CBF4FF0FF314FF0FF30A5
:100B800001F0F6B8ADF1080C6DE904CE00F006F8FE
:100B9000DDF804E0DDE9022304B070472DE9F047F9
:100BA000089D0C46002B4ED194468C458646B2FAE1
:100BB00082F262D94AB1C2F12003914020FA03F3D4
:100BC0000CFA02FC194300FA02FE4FEA1C471FFA16
:100BD0008CF6B1FBF7F44FEA1E4307FB141143EA0E
:100BE000014304FB06F199420AD91CEB030304F10B
:100BF000FF3080F01281994240F20F81023C634441
:100C0000591A1FFA8EF3B1FBF7F007FB101143EAF4
:100C1000014300FB06F69E420AD91CEB030300F1D8
:100C2000FF3180F0FC809E4240F2F980634402383C
:100C30009B1B40EA044000211DB1D3400022C5E9BE
:100C40000032BDE8F0878B4205D90DB1C5E900013E
:100C500000210846F5E7B3FA83F1002946D1A34203
:100C600002D39042C0F0F080861A64EB03030120A7
:100C7000002DE6D0C5E90063E3E7002A40F090804C
:100C8000A1EB0C044FEA1C481FFA8CF70121B4FBBE
:100C9000F8F64FEA1E4308FB164443EA044307FBF9
:100CA00006F0984208D91CEB030306F1FF3402D288
:100CB000984200F2CD8026461C1A1FFA8EF3B4FB30
:100CC000F8F008FB104443EA044300FB07F79F4297
:100CD00008D91CEB030300F1FF3402D29F4200F25B
:100CE000B0802046DB1B40EA0640A5E7C1F12006A4
:100CF0008B4022FA06F71F4320FA06FC04FA01F3A0
:100D000043EA0C03F44000FA01F8380C4FEA1349A7
:100D1000B4FBF0FE1FFA87FC00FB1E4449EA0444C2
:100D20000EFB0CF9A14502FA01F20AD93C190EF1A9
:100D3000FF3A80F08480A14540F28180AEF1020E3E
:100D40003C44A4EB09041FFA83F9B4FBF0F300FB65
:100D5000134449EA044403FB0CFCA44507D93C199D
:100D600003F1FF3067D2A44565D9023B3C4443EA16
:100D70000E40A0FB0293A4EB0C049C42CE469C4682
:100D800051D34ED055B1B8EB0E0364EB0C0404FA0A
:100D900006F6CB401E43CC40C5E90064002150E775
:100DA000C2F1200320FA03F10CFA02FC24FA03F347
:100DB00094400C434FEA1C4800FA02FE1FFA8CF7DD
:100DC000B3FBF8F008FB1031230C43EA014300FBAE
:100DD00007F1994208D91CEB030300F1FF362CD22E
:100DE00099422AD9023863445B1AA4B2B3FBF8F1E2
:100DF00008FB113344EA034401FB07F3A34208D97B
:100E00001CEB040401F1FF3613D2A34211D90239BD
:100E10006444E41A41EA004139E70446F0E6084632
:100E200006E7C845AED2B9EB020E63EB070C0138FA
:100E3000A8E73146EDE7034699E73046D4E7D646C2
:100E40007FE7634402384DE70646234608460FE72E
:100E5000023E634430E700BF03685A004CBF43F0D2
:100E6000004323F000431844704700BF2DE9F843C6
:100E700049B34F1E044615463E464FF0000909EBA4
:100E8000060101EBD171491004EBC1084046FFF7A0
:100E9000E3FF8F4203464FEAC1000FD00830AB4258
:100EA000204407D8FFF7D8FF0138A84208D201F143
:100EB0000109E4E7894506D04E1EE0E7AB42F9D8C8
:100EC0004046BDE8F8834FF000084046BDE8F8838F
:100ED000012807D0022807D0044B00280CBF184671
:100EE0000020704702487047024870479915000873
:100EF0009D150008A115000830B5214B83B00446AC
:100F00008D1E1BB301A92846AFF3008088B3019959
:100F10002A46FFF7ABFF014658B3FFF79DFF4B682A
:100F2000A064012B28D0002B01F104001FDBFFF788
:100F300093FF002323650368E064002B0DDBFFF7BC
:100F40008BFF03460020236103B030BD0D4B0E49DB
:100F5000C91AC91018460191DAE7C3F30360FFF715
:100F6000B7FF034628B10020236103B030BD012341
:100F7000E0E700230920E6E700230520E3E700BFC0
:100F800000000000F09A0108C89D01080368DA0714
:100F900010B5044606D49B0700F1480009D500F0BF
:100FA00069FC2368590709D51A070ED5DB0613D546
:100FB00010BD00F057FC23685907F5D404F1D000A8
:100FC00000F060FC23681A07F0D404F5A87000F064
:100FD00061FC2368DB06EBD404F5E870BDE8104043
:100FE00000F09CBC092070470346006800B118441B
:100FF000704700BF704700BF70B504460E46316CA5
:101000002046FFF779FF054688B9326C6261236993
:1010100032462146012098470828F0D0072806D1FB
:101020002846316CFFF7E6FF301D00F00FFC17F08B
:1010300093F800BF2DE9F0470D1DD0F80C80D0F8D3
:101040001890074614460FCDADF5727D0DF10C0CCE
:10105000ACE80F000FCDACE80F000FCDACE80F00EF
:1010600095E80F0002AE4FF0000E8CE80F00C6F8B6
:1010700000E020E0336C7B614FF4F07231467AA8D7
:1010800017F08AFB3B697AAA394650469847889BF5
:1010900073642146CDE9006905463B463A46012086
:1010A000C047044618BB4FF4F0727AA9304617F0D7
:1010B00073FB082D19D1316C3846FFF71DFF093439
:1010C0005FFA84FA05460028D4D0B36B73643A46BD
:1010D000CDE900693B464AF010010120C04730B914
:1010E00028460DF5727DBDE8F087072D05D009254E
:1010F00028460DF5727DBDE8F0872046316CFFF77C
:1011000079FF03A800F0A2FB406C7047F0B5CB6BF1
:101110000B6401F1040C0E460546BCE80F00F9B063
:1011200001AC0FC4BCE80F000FC4BCE80F000FC433
:101130009CE80F004FF0FF3784E80F00009706E0AF
:101140002B696A46294698470828044608D1109911
:101150002846FFF7D1FE0028F2D0092079B0F0BD73
:101160006846FFF713FF062CF7D131462846FFF7F4
:1011700043FF00BFC160D96B826119640022194628
:1011800058E700BF70B5C66843690B64AEB9036920
:101190000A4604460D46014602209847072805D016
:1011A00008280FD129462046FFF726FF3046296C34
:1011B000FFF720FF281D00F049FB0122FFF73AFF4F
:1011C00016F0CAFF16F0C8FFC2681AB1CA6B0A64EB
:1011D00000222FE79AE700BF704700BF83680146EF
:1011E0000BB1012018477047012910D009D883B9E5
:1011F0000F2A0ED800EB820218465368009A13603B
:101200007047033901298CBF02200120704708462E
:1012100070470220704700BF00B585B00A46002322
:1012200003A900911946FFF7DFFF039805B05DF8A9
:1012300004FB00BF012910D009D883B90F2A0ED8AA
:10124000009900EB82020968516018467047033923
:1012500001298CBF022001207047084670470220F8
:10126000704700BF10B584B0002303AC0392009414
:101270000A461946FFF7DEFF04B010BD70B5D36B08
:10128000136402F1040C05460C46BCE80F00ADF5F2
:101290000E7D0DF15C0EAEE80F00BCE80F00AEE86D
:1012A0000F00BCE80F00AEE80F009CE80F004FF005
:1012B000FF368EE80F00169610E0FFF7D3FF2146A9
:1012C00016A8A847034616AA6946082083B9049BB6
:1012D0009847052806460CD0092809D02699684663
:1012E000FFF70AFE03466A460C2116A8002BE4D03D
:1012F000092616A8FFF74AFE30460DF50E7D70BD93
:101300002DE9F04F9346CA6C89B00D4652F8041B84
:10131000069200F0030C002B79D00C0C8DF81D40C8
:101320000904E4B2059102EB840202212F6D8DF8CD
:101330001C10BCF1020F08BFAA6B17F001070CD0FC
:1013400005A9584600F084FB18B9082009B0BDE88B
:10135000F08F092009B0BDE8F08F1668002EEFD09D
:1013600000F008010191B246029764469946B9F12E
:10137000020F48D0B2F800A0568802F10408AA6C07
:1013800026F001030F2158469F18FFF745FF8742BB
:1013900037D82AF001023A44824294BF0022012247
:1013A000730003F002030AF0010A43EA0A03012B67
:1013B00047D0022B31D0002BCBD114B1002A40F002
:1013C000C98008F10402D2F800A0BAF1000FCED112
:1013D00005A95846029F00F03BFB0028B9D1002F19
:1013E000B3D00F215846FFF717FF0E21024658468B
:1013F000FFF738FF674A0F215846FFF733FF0720F2
:10140000A8E70022CCE7566802F10808B7E709020E
:1014100005918DF81D30032188E7D8F8006026F08B
:101420000043002C44D122B1019A002A5AD0002B4B
:1014300058D0002E01DA08F10408013308EB8302CA
:10144000C1E7ECB9CAB1D8F80430D8F80020991C2B
:101450004FEAD2723FF47DAF05F158010133049198
:1014600000F08B8008F10400FFF7BEFD04AB0146DD
:101470002846AFF30080002857D108F10802A2E700
:101480000D215846FFF7C8FE2B6A8342F5D1AB6A9F
:101490009845F2D14046FFF7DFFC0F21024658463F
:1014A000FFF7E0FE2A4600215846FFF7DBFEA6E7DD
:1014B0000D2158460393FFF7AFFE2A6A039B824231
:1014C000B7D1AA6A9045B4D100270422C5E90B72AE
:1014D0004244AB626A63D8F80020BA4255DB01226D
:1014E0000292AAE7039408F1040A002605F15807BE
:1014F0001C460DE050460497FFF776FD002201469A
:1015000004AB284601360AF1040AAFF30080E0B9C3
:10151000A642EFD10D215846FFF77EFE049BC5F889
:101520002880C5E90803062014E704460D21584623
:10153000FFF772FE049E2862022C04BFEE6205F1E2
:101540002C06C5E90968062004E72346D8F80060A0
:10155000039C6EE74046FFF77FFC08F10402044657
:10156000AA632846AFF3008000283FF4F2AE22467B
:101570000F215846FFF776FE41E70C4658460D21ED
:10158000FFF74AFE26462862DBE7581C08EB80007E
:1015900081E700BF000000000023B1E60123AFE6B1
:1015A0000223ADE62DE9F0430646C3B015461C46BE
:1015B000042900F2D180DFE801F0AC51CF2A03000A
:1015C000002C40F0C980102A00F2C6800368DC06B7
:1015D00000F1E78020AF384600F0AAF9B46B394635
:1015E00000234FF0010C0CFA03F22A42204603F1CB
:1015F000010303D050F8042B0A600446042B01F1C8
:101600000401F0D1B463384600F088F999E0032C66
:1016100040F0A28094B204EB1243102B4FEA124523
:1016200000F29A8003681F0700F1C38020AF38469C
:1016300000F052F9B26B07EBC50154B10B46D01A5A
:1016400001EBC401E4001D5843F8045B8B42FAD15E
:101650002244B263384600F01DF972E0012C4FEAD3
:10166000124895B271D0052C76D108EB0509B9F175
:10167000200F71D8B8F10F0F72D8B9F1100F0368AD
:1016800000F29F80D90708D523F00103304643F0CC
:10169000020340F8483B00F0F1F820AF384600F074
:1016A000EDF8B36B002D00F0B9806D006A1E07EBFA
:1016B000C80100250132043903EB820253F8040B00
:1016C00041F8040F9342F9D1002D00F0A18041466A
:1016D000102938BF10216B0010396F46013B07EB12
:1016E000C1010133043902EB830352F8040B41F8C2
:1016F000040F9A42F9D1012C00F08880B8F10F0F45
:10170000B26302D820A800F0B5F8384600F0BAF865
:1017100017E00CBB806B23461FFA82FC0124371DA7
:1017200004FA03F111EA0C0F024604D052F8041B2C
:1017300047F8231010460133102BF1D1AC0400D42C
:10174000B063002043B0BDE8F08308EB0503102B25
:1017500002D8B8F1100F14D1022043B0BDE8F083D5
:10176000002DEED003685A075CD46F46384600F06F
:101770008DF8B26B6B00A8F11001013B07EBC101C2
:10178000AFE70368DA0759D420AF384600F06EF8A7
:10179000B36B002D89D10433B363384600F062F88F
:1017A000CFE723F01003036000F5E87000F0C0F805
:1017B00010E723F00803036000F5A87000F08CF830
:1017C00034E7D90708D523F0010343F0020340F8BA
:1017D000483B00F053F83368580706D5304623F0ED
:1017E000040340F8D03B00F051F820AF384600F039
:1017F00045F8684600F04AF8C8F110025200B36B91
:10180000A9F11005013A07EBC80153E720AFC2E781
:10181000012CC0D0B8F10F0FB36392D8384600F056
:1018200029F88EE723F0040340F8D03B6F4600F020
:101830002DF8384600F02AF8B26B9BE7304623F0CB
:10184000030340F8483B00F011F89DE700F1340134
:1018500091E838009C46A6464CF8045D90E8FF0FDE
:10186000E54600BD90EC210B704700BF80EC210BDA
:10187000704700BF90EC200B704700BF80EC200B3E
:10188000704700BFD0EC200B704700BFC0EC200BAE
:10189000704700BFF0EC0201F0EC0211F0EC022105
:1018A000F0EC0231F0EC0241F0EC0251F0EC02619C
:1018B000F0EC0271F0EC0281F0EC0291F0EC02A18C
:1018C000F0EC02B1F0EC02C1F0EC02D1F0EC02E17C
:1018D000F0EC02F1704700BFE0EC0201E0EC021115
:1018E000E0EC0221E0EC0231E0EC0241E0EC0251DC
:1018F000E0EC0261E0EC0271E0EC0281E0EC0291CC
:10190000E0EC02A1E0EC02B1E0EC02C1E0EC02D1BB
:10191000E0EC02E1E0EC02F1704700BFB0FC0181B5
:10192000B0FC0191B0FC01A1B0FC01B1704700BF57
:10193000A0FC0181A0FC0191A0FC01A1A0FC01B1CF
:10194000704700BFEC4600B52DE900502DE9FF1FA0
:101950004FF000032DE90C0001A9FFF7D7FBDDF8DC
:1019600040E012B0704700BFEC4600B52DE90050D2
:101970002DE9FF1F4FF000032DE90C0001A9FFF72F
:1019800001FCDDF840E012B0704700BFEC4600B546
:101990002DE900502DE9FF1F4FF000032DE90C0049
:1019A00001A9FFF711FCDDF840E012B0704700BF5D
:1019B000EC4600B52DE900502DE9FF1F4FF0000364
:1019C0002DE90C0001ABFFF7D5FBDDF840E012B0CC
:1019D000704700BFEC4600B52DE900502DE9FF1F10
:1019E0004FF000032DE90C0001AAFFF747FCDDF8DA
:1019F00040E012B0704700BF027A03467AB9427ADB
:101A0000A2B14168013A10B44272086803220C1D69
:101A10001A7202025C60000E10BC1A607047006807
:101A2000013A1A7202021A60000E7047B020704725
:101A300000B585B0002303AA009219460C22FFF7D7
:101A4000D3FB039805B05DF804FB00BFF0E700BFCF
:101A50002DE9F043064685B00D464FF000082846B4
:101A6000FFF7CAFFB028044600F0DA80070646D523
:101A700000F0F003802B5ED0B02B73D01BD8902BDE
:101A800000F09B80A02B12D1C34303F007034FF457
:101A90007F621A41010702F47F6201D542F480425D
:101AA000002319463046FFF77DFD0028D7D00920D6
:101AB00005B0BDE8F083C02B6DD1C62800F093803F
:101AC000C72800F0B28000F0F803C02B00F0D280ED
:101AD000C82800F0DD80C928E9D12846FFF78CFF2F
:101AE000020300F00F0002F47022013002430121D2
:101AF00005233046FFF756FD0028B0D0D7E7830016
:101B0000DBB21F1D0DF10C0900231946CDF8009022
:101B10000D223046FFF768FB039BCDF8009060066E
:101B20004CBFDF1BFF1800230D22194630460397D8
:101B3000FFF780FB93E72846FFF75EFF2402204370
:101B4000B0F5004FB3D004010023A2B219463046CD
:101B5000FFF728FD0028AAD114F4004F18BF4FF05A
:101B600001087CE7B12851D0B22800F0AD80B3283D
:101B70006DD000F0FC03B42B99D000F007020132C5
:101B8000012342F4002219463046FFF70BFD0028DE
:101B90003FF465AF8BE700F0F803D02B87D100F05E
:101BA00007020132052342F4002201213046FFF7EB
:101BB000F9FC00283FF453AF79E700F00D030D2B3B
:101BC0003FF475AF03AF002300F00F0219460097F2
:101BD0003046FFF709FB002300970D2219463046D7
:101BE000FFF728FB3BE72846FFF706FF020300F05C
:101BF0000F00013002F470220323024319463046DD
:101C0000FFF7D0FC00283FF42AAF50E72846FFF743
:101C1000F3FE431EDBB20E2B02467FF641AF46E7D2
:101C2000B8F1000F40D0002042E72846FFF7E4FE5D
:101C3000431EDBB20E2B02463FF639AF00230421D0
:101C40003046FFF7AFFC00283FF409AF2FE72846E6
:101C5000FFF7D2FE020300F00F00013002F4702201
:101C60000123024319463046FFF79CFC00283FF44D
:101C7000F6AE1CE700F00F020132032342F42022EB
:101C800019463046FFF78EFC00283FF4E8AE0EE719
:101C90002846FFF7B1FE00F0F00200F00F0310320B
:101CA000013343EA023222E703AC434641460E22A7
:101CB00000943046FFF798FA009443460F224146BD
:101CC0003046FFF7B7FAAEE700230DF10C090D22FD
:101CD0001946CDF800903046FFF786FA2846FFF700
:101CE0008BFE0206039C4FF002070BD500F07F002D
:101CF000B840044428460394FFF77EFE030607F12C
:101D00000707F3D400FA07F204F501742244002314
:101D10000392CDF800900D2219463046FFF78AFA5B
:101D20009DE600BF10B5C26C536884B04FF0030C41
:101D300008321C0208461B0E01A9019402928DF87C
:101D40000CC08DF80D30FFF783FE04B010BD00BF4E
:101D500008B5FFF77BFE806C08BD00BF08B5FFF734
:101D600075FEC06CC379023300EB830008BD00BF71
:101D7000704700BF10F8012B11F8013B012A28BF62
:101D80009A42F7D0D01A704780B483B000AF786021
:101D90007B681A6B7B685A637B68DA6A7B681A63B4
:101DA0007B6893ED087A7B68D3ED097A77EE677AE2
:101DB0007B68C3ED0B7A7B6893ED0B7A7B68D3ED80
:101DC000137AB4EEE77AF1EE10FA10D87B6893ED4F
:101DD0000B7A7B68D3ED137AF1EE677AB4EEE77A8B
:101DE000F1EE10FA03DD7B684FF00002DA627B68E7
:101DF00093F85530002B40F0B8807B6893ED007A63
:101E00007B68D3ED0B7A67EE277A7B68C3ED0E7A99
:101E10007B6893ED0E7A7B68D3ED047AF1EE677AF6
:101E2000B4EEE77AF1EE10FA08D87B68D3ED047AC5
:101E3000F1EE677A7B68C3ED0E7A0EE07B6893ED76
:101E40000E7A7B68D3ED047AB4EEE77AF1EE10FAFD
:101E500003DB7B681A697B689A637B6893ED0F7A72
:101E60007B68D3ED016A7B68D3ED0B7A66EEA77AC7
:101E700077EE277A7B68C3ED0F7A7B6893ED0F7A54
:101E80007B68D3ED057AF1EE677AB4EEE77AF1EE8E
:101E900010FA08D87B68D3ED057AF1EE677A7B6893
:101EA000C3ED0F7A0EE07B6893ED0F7A7B68D3ED7C
:101EB000057AB4EEE77AF1EE10FA03DB7B685A6933
:101EC0007B68DA637B6893ED027A7B68D3ED0B6AFB
:101ED0007B68D3ED0C7A76EEE77A67EE277A9FED92
:101EE000BA7A27EE877A7B68D3ED107ADFEDB76A8E
:101EF00067EEA67A77EE277A7B68C3ED107A7B6867
:101F000093ED107A7B68D3ED067AF1EE677AB4EE42
:101F1000E77AF1EE10FA08D87B68D3ED067AF1EE95
:101F2000677A7B68C3ED107A0EE07B6893ED107AD8
:101F30007B68D3ED067AB4EEE77AF1EE10FA03DBB4
:101F40007B689A697B681A647B6893ED0E7A7B687C
:101F5000D3ED0F7A37EE277A7B68D3ED107A77EEE0
:101F6000277A7B68C3ED117A18E17B6893F85530C6
:101F7000012B47D17B6893ED007A7B68D3ED0B6A28
:101F80007B68D3ED0C7A76EEE77A67EE277A7B688A
:101F9000C3ED0E7A7B6893ED017A7B68D3ED0B7A03
:101FA00067EE277A7B68C3ED0F7A7B6893ED027A40
:101FB0007B68D3ED0B6A7B68D3ED0C7A77EEA77A5A
:101FC00076EEE76A7B68D3ED0D7A76EEA77A67EE58
:101FD000277A7B68C3ED107A7B6893ED117A7B6872
:101FE000D3ED0E6A7B68D3ED0F7A76EEA76A7B6835
:101FF000D3ED107A76EEA77A77EE277A7B68C3ED79
:10200000117ACBE07B6893F85530022B40F0C68004
:102010007B6893ED007A7B68D3ED0B7A67EE277AC5
:102020007B68C3ED0E7A7B6893ED0E7A7B68D3ED07
:10203000047AF1EE677AB4EEE77AF1EE10FA08D896
:102040007B68D3ED047AF1EE677A7B68C3ED0E7A94
:102050000EE07B6893ED0E7A7B68D3ED047AB4EEE4
:10206000E77AF1EE10FA03DB7B681A697B689A6302
:102070007B6893ED0F7A7B68D3ED016A7B68D3EDC3
:102080000B7A66EEA77A77EE277A7B68C3ED0F7A34
:102090007B6893ED0F7A7B68D3ED057AF1EE677A72
:1020A000B4EEE77AF1EE10FA08D87B68D3ED057A42
:1020B000F1EE677A7B68C3ED0F7A0EE07B6893EDF3
:1020C0000F7A7B68D3ED057AB4EEE77AF1EE10FA79
:1020D00003DB7B685A697B68DA637B6893ED027A7D
:1020E0007B68D3ED0B6A7B68D3ED0C7A76EEE77AEA
:1020F00067EE277A9FED347A27EE877A7B68D3EDF7
:10210000107ADFED326A67EEA67A77EE277A7B687F
:10211000C3ED107A7B6893ED107A7B68D3ED067A75
:10212000F1EE677AB4EEE77AF1EE10FA08D87B6840
:10213000D3ED067AF1EE677A7B68C3ED107A0EE094
:102140007B6893ED107A7B68D3ED067AB4EEE77A7C
:10215000F1EE10FA03DB7B689A697B681A647B688E
:1021600093ED0E7A7B68D3ED0F7A37EE277A7B6892
:10217000D3ED107A37EE277A7B68D3ED036A7B685C
:1021800093ED086A7B68D3ED0A7A76EE677A66EE9D
:10219000A77A77EE277A7B68C3ED117A7B6893ED97
:1021A000117A7B68D3ED077AF1EE677AB4EEE77ABD
:1021B000F1EE10FA0ED87B68D3ED077AF1EE677A6C
:1021C0007B68C3ED117A14E03333333F9A99993E1B
:1021D0006666663F7B6893ED117A7B68D3ED077A7C
:1021E000B4EEE77AF1EE10FA03DB7B68DA697B681C
:1021F0005A647B68D3ED117AFDEEE77A17EE903AD8
:10220000002BB8BF5B4207EE903AB8EEE77A7B68E6
:10221000D3ED077A5FED136A67EEA67AB4EEE77A3C
:10222000F1EE10FA0AD57B68002283F854207B680F
:1022300000221A657B6893F8543032E07B68D3ED56
:102240000B7AFDEEE77A17EE903A83EAE372A2EB9F
:10225000E3727B68D3ED097A1FED237A67EE877A04
:10226000FDEEE77A17EE903A002BB8BF5B429A4238
:1022700005DD7B681B6D5A1C7B681A6506E07B6870
:1022800000221A657B68002283F854207B681B6D4E
:10229000642B03DD7B68012283F854207B6893F86C
:1022A000543018460C37BD465DF8047B704700BFBC
:1022B00080B48BB000AF78620B4687ED070AC7ED9C
:1022C000060A87ED051AC7ED041A87ED032AC7ED44
:1022D000022A87ED013A87F823307B6A97F823209A
:1022E00083F855207B6AFA691A607B6ABA695A607A
:1022F0007B6A7A699A607B6A3A691A617B6AFA68D2
:102300005A617B6ABA689A617B6A7A68DA6100BF4F
:102310002C37BD465DF8047B704780B584B000AFB4
:10232000F86087ED020AC7ED010AFB68BA681A6215
:10233000FB687A685A62F868FFF726FD034618467C
:102340001037BD4680BD000080B582B000AF786018
:10235000084611461A460346FB700B46BB701346EF
:102360007B70BA4B04221A80B94B08221A807B6812
:10237000FA781A737B68BA785A737B687A789A739A
:102380007B6800221A747B78184615F0EDFE034630
:102390001A467B685A617B685B697A780021184627
:1023A00016F038F9A94B1B881A467B7802FB03F319
:1023B000184615F0D9FE03461A467B689A617B6879
:1023C0009869A24B1B881A467B7802FB03F31A46D6
:1023D000002116F01FF99D4B1B881A467B7802FBE3
:1023E00003F3184615F0C0FE03461A467B68DA610F
:1023F0007B68D869954B1B881A467B7802FB03F3F0
:102400001A46002116F006F9904B1B881A46FB78F5
:1024100002FB03F3184615F0A7FE03461A467B6835
:102420001A627B68186A894B1B881A46FB7802FB84
:1024300003F31A46002116F0EDF87B78184615F0E4
:1024400093FE03461A467B685A627B685B6A7A7819
:102450000021184616F0DEF87C4B1B881A46FB78E4
:1024600002FB03F3184615F07FFE03461A467B680D
:102470001A607B681868754B1B881A46FB7802FB4C
:1024800003F31A46002116F0C5F8704B1B881A4654
:102490007B7802FB03F3184615F066FE03461A46E6
:1024A0007B685A607B685868684B1B881A467B7843
:1024B00002FB03F31A46002116F0ACF8634B1B88AD
:1024C0001A46BB7802FB03F3184615F04DFE03468F
:1024D0001A467B689A607B6898685C4B1B881A4632
:1024E000BB7802FB03F31A46002116F093F8574B12
:1024F0001B881A46FB7802FB03F3184615F034FEDE
:1025000003461A467B68C3F8E8207B68D3F8E800E6
:102510004E4B1B881A46FB7802FB03F31A46002138
:1025200016F078F87B6803F130007B681B7B194656
:102530007B68D3F8E830012215F00AF8434B1B887A
:102540001A46FB7802FB03F3184615F00DFE03460E
:102550001A467B68C3F8EC207B68D3F8EC003B4B51
:102560001B881A46FB7802FB03F31A46002116F07B
:1025700051F87B6803F138007B681B7B19467B6848
:10258000D3F8EC30012214F0E3FFBB78002B26D007
:102590002E4B1B881A46BB7802FB03F3184615F036
:1025A000E3FD03461A467B68C3F8F0207B68D3F846
:1025B000F000264B1B881A46BB7802FB03F31A4631
:1025C000002116F027F87B6803F140007B685B7BF5
:1025D00019467B68D3F8F030012214F0B9FF1B4B89
:1025E0001B881A467B7802FB03F3184615F0BCFDE6
:1025F00003461A467B68C3F8F4207B68D3F8F400DE
:10260000124B1B881A467B7802FB03F31A46002103
:1026100016F000F87B6803F148007B689B7B194645
:102620007B68D3F8F430012214F092FF074B1B882B
:102630001A46FB7802FB03F3FA7802FB03F3184611
:1026400015F092FD03461A467B6803E0340700202C
:1026500036070020C3F8F8207B68D3F8F800BD4B9C
:102660001B881A46FB7802FB03F3FA7802FB03F39C
:102670001A46002115F0CEFF7B6803F150007B68FD
:102680001B7B19467B681B7B1A467B68D3F8F830A6
:1026900014F05EFFAF4B1B881A46FB7802FB03F376
:1026A000FA7802FB03F3184615F05EFD03461A465E
:1026B0007B68C3F8FC207B68D3F8FC00A54B1B8823
:1026C0001A46FB7802FB03F3FA7802FB03F31A467F
:1026D000002115F09FFF7B6803F158007B681B7B8E
:1026E00019467B681B7B1A467B68D3F8FC3014F0D4
:1026F0002FFF984B1B881A46FB7802FB03F3FA78EE
:1027000002FB03F3184615F02FFD03461A467B68BB
:10271000C3F800218F4B1B881A46FB7802FB03F39A
:10272000FA7802FB03F3184615F01EFD03461A461D
:102730007B68C3F804217B68D3F80001854B1B88B4
:102740001A46FB7802FB03F3FA7802FB03F31A46FE
:10275000002115F05FFF7B68D3F804017D4B1B88D7
:102760001A46FB7802FB03F3FA7802FB03F31A46DE
:10277000002115F04FFF7B6803F160007B681B7B35
:1027800019467B681B7B1A467B68D3F8003114F02E
:10279000DFFE7B6803F168007B681B7B19467B6862
:1027A0001B7B1A467B68D3F8043114F0D1FEBB784A
:1027B000002B2ED0674B1B881A46FB7802FB03F3D5
:1027C000BA7802FB03F3184615F0CEFC03461A460E
:1027D0007B68C3F808217B68D3F808015D4B1B8830
:1027E0001A46FB7802FB03F3BA7802FB03F31A469E
:1027F000002115F00FFF7B6803F170007B681B7BE5
:1028000019467B685B7B1A467B68D3F8083114F065
:102810009FFE504B1B881A467B7802FB03F3FA7825
:1028200002FB03F3184615F09FFC03461A467B682B
:10283000C3F80C21474B1B881A46FB7802FB03F3B5
:102840007A7802FB03F3184615F08EFC03461A460D
:102850007B68C3F810217B68D3F80C013D4B1B88C3
:102860001A467B7802FB03F3FA7802FB03F31A465D
:10287000002115F0CFFE7B68D3F81001354B1B8883
:102880001A46FB7802FB03F37A7802FB03F31A463D
:10289000002115F0BFFE7B6803F178007B689B7B0D
:1028A00019467B681B7B1A467B68D3F80C3114F001
:1028B0004FFE7B6803F180007B681B7B19467B68B9
:1028C0009B7B1A467B68D3F8103114F041FE214BF4
:1028D0001B881A46FB7802FB03F3FA7802FB03F32A
:1028E000184615F041FC03461A467B68C3F81421CC
:1028F0007B68D3F81401174B1B881A46FB7802FB40
:1029000003F3FA7802FB03F31A46002115F082FE66
:102910007B6803F188007B681B7B19467B681B7B07
:102920001A467B68D3F8143114F012FE094B1B8849
:102930001A467B7802FB03F37A7802FB03F318460E
:1029400015F012FC03461A467B68C3F818217B6811
:1029500002E000BF34070020D3F818017D4B1B882C
:102960001A467B7802FB03F37A7802FB03F31A46DC
:10297000002115F04FFE7B6803F190007B689B7B84
:1029800019467B689B7B1A467B68D3F8183114F094
:10299000DFFD704B1B881A46FB7802FB03F37A7845
:1029A00002FB03F3184615F0DFFB03461A467B686B
:1029B000C3F81C217B68D3F81C01664B1B881A46A0
:1029C000FB7802FB03F37A7802FB03F31A4600213B
:1029D00015F020FE7B6803F198007B681B7B19468D
:1029E0007B689B7B1A467B68D3F81C3114F0B0FDE2
:1029F000584B1B881A467B681B7B02FB03F37A68E3
:102A0000127B02FB03F3184615F0AEFB03461A4691
:102A10007B68C3F820214F4B1B881A467B681B7BC1
:102A200002FB03F37A68127B02FB03F3184615F0EE
:102A30009BFB03461A467B68C3F82421454B1B8841
:102A40001A467B681B7B02FB03F37A68127B02FB4E
:102A500003F3184615F088FB03461A467B68C3F853
:102A600028213C4B1B881A467B681B7B02FB03F327
:102A7000184615F079FB03461A467B68C3F82C21EB
:102A8000344B1B881A467B681B7B02FB03F31846FA
:102A900015F06AFB03461A467B68C3F830217B6851
:102AA00003F1A0007B681B7B19467B681B7B1A46E1
:102AB0007B68D3F8203114F04BFD7B6803F1A8004C
:102AC0007B681B7B19467B681B7B1A467B68D3F8A7
:102AD000243114F03DFD7B6803F1B0007B681B7B63
:102AE00019467B681B7B1A467B68D3F8283114F0A3
:102AF0002FFD7B6803F1B8007B681B7B19467B6860
:102B0000D3F82C31012214F023FD7B6803F1C000BF
:102B10007B681B7B19467B68D3F83031012214F0A7
:102B200017FD7B68002283F828207B68002283F849
:102B300029207B68002283F82A207B68002283F802
:102B40002B207B68002283F82C2000BF0837BD466D
:102B500080BD00BF3407002080B582B000AF786030
:102B60007B68DB7B002B03D0786800F033FB1BE035
:102B70007B68D3F8F4007B685968154B1B881A46AC
:102B80007B689B7B02FB03F31A4615F005FE7B680E
:102B900058680F4B1B881A467B689B7B02FB03F32C
:102BA0001A46002115F036FD7B68D3F8F0007B68EB
:102BB0009968074B1B881A467B685B7B02FB03F313
:102BC0001A4615F0E9FD00BF0837BD4680BD00BFBD
:102BD0003407002080B582B000AF78607B6893F83E
:102BE0002830002B58D17B685B7B002B44D07B685E
:102BF0001B7B1A467B68A3F8B8207B680122A3F8E8
:102C0000BA207B6803F160007B6803F130017B68C8
:102C1000B8331A4614F0F6FA03461A467B6883F86E
:102C2000C8207B681B7B1A467B68A3F8C0207B68A2
:102C30000122A3F8C2207B6803F170007B6803F1D6
:102C400040017B68C0331A4614F0DCFA03461A468A
:102C50007B6883F8C8207B6803F1B8007B6803F1C8
:102C6000C0017B6838331A4614F076FC03461A46D6
:102C70007B6883F8C8200FE07B6803F160007B6805
:102C800003F130017B6838331A4614F0BBFA03466F
:102C90001A467B6883F8C82000BF0837BD4680BD50
:102CA00080B582B000AF78607B6893F82930002B44
:102CB00049D17B6803F160027B686833194610468E
:102CC00014F0DAF903461A467B6883F8C8207B685B
:102CD00003F160007B6803F150017B6858331A46AA
:102CE00014F090FA03461A467B6883F8C8207B6884
:102CF000B3F858207B68A3F8A8207B68B3F86A2053
:102D00007B68A3F8AA207B6803F158007B6803F175
:102D100068017B68A8331A4614F074FA03461A4611
:102D20007B6883F8C8207B6803F1A8007B6803F107
:102D300088017B6858331A4614F00EFC03461A4685
:102D40007B6883F8C82000BF0837BD4680BD80B5CA
:102D500082B000AF78607B6893F82A30002B40F097
:102D60009C807B6803F178027B68803319461046AB
:102D700014F082F903461A467B6883F8C8207B6802
:102D8000B3F878207B68A3F8A8207B68B3F85A20B2
:102D90007B68A3F8AA207B6803F178007B6803F1C5
:102DA00058017B68A8331A4614F02CFA03461A46D9
:102DB0007B6883F8C8207B68B3F8A8207B68A3F8F9
:102DC000B0207B68B3F882207B68A3F8B2207B68D0
:102DD00003F1A8007B6803F180017B68B0331A46D9
:102DE00014F010FA03461A467B6883F8C8207B6803
:102DF000B3F890207B68A3F8A0207B68B3F89220FA
:102E00007B68A3F8A2207B6803F1B0007B6803F124
:102E100090017B68A0331A4614F09EFB03461A46C5
:102E20007B6883F8C8207B6803F1A0027B68B0331D
:102E30001946104614F086FA03461A467B6883F852
:102E4000C8207B68B3F858207B68A3F8A8207B686B
:102E5000B3F882207B68A3F8AA207B6803F15800AE
:102E60007B6803F180017B68A8331A4614F0CAF925
:102E700003461A467B6883F8C8207B6803F1A800E4
:102E80007B6803F1B0017B6898331A4614F0BAF9F5
:102E900003461A467B6883F8C82000BF0837BD4642
:102EA00080BD80B582B000AF78607B6893F82B302E
:102EB000002B5DD17B68B3F878207B68A3F8B8203D
:102EC0007B680122A3F8BA207B6803F178007B6855
:102ED00003F138017B68B8331A4614F093F90346BE
:102EE0001A467B6883F8C8207B68B3F848207B6863
:102EF000A3F8C0207B680122A3F8C2207B6803F1FD
:102F000048007B6803F1B8017B68C0331A4614F0AF
:102F10000FF903461A467B6883F8C8207B68B3F82C
:102F200098207B68A3F8B8207B680122A3F8BA2018
:102F30007B6803F198007B6803F1C0017B68B833BC
:102F40001A4614F05FF903461A467B6883F8C820D6
:102F50007B6803F138007B6803F1B8017B6830338C
:102F60001A4614F0F9FA03461A467B6883F8C8201B
:102F700000BF0837BD4680BD80B582B000AF786025
:102F80007B6893F82C30002B47D17B68B3F89820EE
:102F90007B68A3F8A8207B68B3F87A207B68A3F845
:102FA000AA207B68B3F8A8207B68A3F8B0207B68D0
:102FB000B3F85A207B68A3F8B2207B6803F198002D
:102FC0007B6803F178017B68A8331A4614F01AF97C
:102FD00003461A467B6883F8C8207B6803F1A80083
:102FE0007B6803F158017B68B0331A4614F00AF984
:102FF00003461A467B6883F8C8207B6803F15800B3
:103000007B6803F1B0017B6850331A4614F090F8E6
:1030100003461A467B6883F8C82000BF0837BD46C0
:1030200080BD000080B584B000AF78607868FFF79D
:1030300093FD7B68D3F8CC30002B04D07B68D3F8A9
:10304000CC30786898477868FFF7C4FD7B68D3F880
:10305000D030002B04D07B68D3F8D0307868984704
:103060007868FFF71DFE7B68D3F8D430002B04D0BE
:103070007B68D3F8D430786898477B681B7C002B3A
:1030800003D17B68DB7B002B1DD17868FFF75FFEE7
:103090007B68D3F8D830002B04D07B68D3F8D830C5
:1030A000786898477868FFF7FCFE7B68D3F8DC30D7
:1030B000002B04D07B68D3F8DC30786898477868B8
:1030C000FFF75AFF23E07B68D3F8E8007B68D3F86A
:1030D000EC103F4B1B881A467B681B7B02FB03F3FB
:1030E0001A4615F059FB7B68D3F8F8007B68D3F8D3
:1030F000FC10374B1B881A467B681B7B02FB03F3D3
:103100007A68127B02FB03F31A4615F045FB7B68D5
:10311000D3F8E030002B04D07B68D3F8E030786837
:1031200098470023FB732FE07B68D3F8F820FB7BE4
:103130007968097B03FB01F1FB7B0B449B00134483
:1031400093ED007A7B681A6AFB7B9B001344D3EDF6
:10315000007AB4EEE77AF1EE10FA12D57B681A6ABB
:10316000FB7B9B001A447B68D3F8F810FB7B7868E4
:10317000007B03FB00F0FB7B03449B000B441268C5
:103180001A60FB7B0133FB737B681B7BFA7B9A42E3
:10319000CAD37B6818687B68D3F8E8100C4B1B888F
:1031A0001A467B681B7B02FB03F31A4615F0F4FA00
:1031B0007B68D3F8E430002B04D07B68D3F8E4308C
:1031C000786898477B681B6818461037BD4680BDF5
:1031D0003407002090B585B000AF78607B6800228E
:1031E0001A747B68D3F8F4007B685968734B1B88AA
:1031F0001A467B689B7B02FB03F31A4615F0CCFA58
:103200007B6858686D4B1B881A467B689B7B02FB6A
:1032100003F31A46002115F0FDF97B68D3F8180175
:10322000664B1B881A467B689B7B02FB03F37A681C
:10323000927B02FB03F31A46002115F0EBF97B6841
:10324000D3F80C015D4B1B881A467B681B7B02FB85
:1032500003F37A68927B02FB03F31A46002115F010
:10326000D9F90023FB7347E07B68D3F8F420FB7B9C
:103270009B001344D3ED007AF5EE407AF1EE10FA9C
:1032800037D07B68D3F8F420FB7B9B001A447B6823
:10329000D3F8F4107B681B7C9B000B4412681A6007
:1032A0007B685B6A7A68127C1344FA7B1A707B68CD
:1032B0009A69FB7B9B001A447B68D3F80C117B68EE
:1032C0001B7B18467B681B7C00FB03F37868446912
:1032D000F87B20440078034403F18043013B9B00CA
:1032E0000B4412681A607B681B7C0133DAB27B687E
:1032F0001A74FB7B0133FB737B689B7BFA7B9A42DE
:10330000B2D30023BB7319E07B68DA697B68596A22
:10331000BB7B0B441B789B001A447B68D3F81811C5
:10332000BB7B7868007C03FB00F0BB7B03449B0005
:103330000B4412681A60BB7B0133BB737B681B7C38
:10334000BA7B9A42E0D37B681B7C1A467B68A3F861
:1033500078207B681B7B1A467B68A3F87A207B6801
:103360001B7B1A467B68A3F880207B681B7C1A466F
:103370007B68A3F882207B681B7C1A467B68A3F8D5
:1033800090207B681B7C1A467B68A3F892207B68A0
:103390001B7B1A467B68A3F898207B681B7C1A4627
:1033A0007B68A3F89A207B681B7C1A467B68A3F88D
:1033B000482000BF1437BD4690BD00BF3407002031
:1033C00080B483B000AF786087ED000A7B683A680C
:1033D0001A607B684FF000025A6000BF0C37BD4690
:1033E0005DF8047B70470000B0B584B000AF786032
:1033F00087ED000A7B681B681846FDF74DF802460A
:103400000B464FF000001D49FCF7E6FE02460B4656
:1034100014461D467B685B681846FDF73DF802467A
:103420000B4620462946FDF78FF802460B46144608
:103430001D467B6893ED007AD7ED007A67EE277A18
:1034400017EE900AFDF728F802460B46204629465B
:10345000FCF7C4FE02460B4610461946FDF736FB44
:103460000346FB607B68FA685A60FB6807EE903A97
:10347000B0EE670A1037BD46B0BD00BF0000F03F98
:1034800080B586B000AF87ED050AC7ED040A87ED69
:10349000031AC7ED021A87ED012A464B01221A7062
:1034A000444A7B69C2F8B031424A3B69C2F8B43140
:1034B000404AFB68C2F8B8313E4B3F4AC3F8CC21C2
:1034C0003C4B002283F838213A494FF000024FF07C
:1034D0000003C1E9502337494FF000024FF00003C9
:1034E000C1E95223D7ED027AB7EE007AF4EEC77A3B
:1034F000F1EE10FA02DD4FF07E53BB602D4ABB683F
:10350000C2F8D0312B4A7B68C2F8903103230022E5
:1035100006212A48FEF718FF294B012201212948DC
:1035200014F016F8234BD3F8EC304FF07E521A60AB
:10353000204BD3F8EC3004334FF000021A601D4BDF
:10354000D3F8EC3008334FF000021A60194BD3F86F
:10355000EC300C334FF000021A60164B1A4AC3F8D5
:10356000D020144B194AC3F8D420124B184AC3F880
:10357000D820104B174AC3F8DC200E4B012283F8E9
:103580002E200C4B012283F82F200A4BD3F8043154
:1035900090221149184615F0FFF8064BD3F8FC307D
:1035A00090220E49184615F0F7F800BF1837BD46AF
:1035B00080BD00BF4007002077CC2B32440700209D
:1035C000080900200009002015480008593D00089E
:1035D0001540000879410008808C01080000002097
:1035E000B0B58AB000AF87ED070AC7ED060A87EDD0
:1035F000051AC7ED041A87ED032AC7ED022A87EDE5
:10360000013AC14B1B78002B0BD19FEDC02AF7EE7E
:10361000001A9FEDBF1ADFEDBF0AB2EE040AFFF7F2
:103620002FFFB94A7B68C2F8BC31B74BD3ED587A4B
:1036300097ED077A77EE677AB34BC3ED5B7AB24BBF
:10364000D3ED597A97ED067A77EE677AAE4BC3EDF4
:103650005C7AAD4BD3ED5A7A97ED057A77EE677ABF
:10366000A94BC3ED5D7AA84BD3ED5B7AB6EE007A39
:1036700027EE877AD7ED017A67EE277AA64BC3ED5E
:10368000007AA14BD3ED5C7AB6EE007A27EE877A0A
:10369000D7ED017A67EE277AA04BC3ED007A9A4BFB
:1036A000D3ED5D7AB6EE007A27EE877AD7ED017A10
:1036B00067EE277A9A4BC3ED007A934BD3F8043127
:1036C00090229849184615F067F8934BD3ED007A8D
:1036D0008D4BD3F804310433F1EE677AC3ED007AF1
:1036E0008E4BD3ED007A884BD3F804310833F1EEDA
:1036F000677AC3ED007A8A4BD3ED007A824BD3F818
:1037000004310C33F1EE677AC3ED007A7E4BD3F8C7
:1037100004311833804A12681A607B4BD3F80431A5
:1037200020337F4A12681A607C4BD3ED007A764BC7
:10373000D3F804312433F1EE677AC3ED007A724B8B
:10374000D3F804313033754A12681A60744BD3EDE4
:10375000007A6D4BD3F804313433F1EE677AC3ED60
:10376000007A694BD3F804313C336B4A12681A6013
:10377000654BD3F804314833694A12681A60624BCA
:10378000D3F804314C33654A12681A60624BD3EDAA
:10379000007A5D4BD3F804315033F1EE677AC3ED14
:1037A000007A594BD3E9522313430BD1564A3B6954
:1037B000C2F87831544AFB68C2F87C31524ABB687F
:1037C000C2F88031504B93ED5E7A4F4BD3ED647A63
:1037D00067EE276A4C4B93ED6F7A4B4BD3ED647ACF
:1037E00077EE277A86EEA77A474BD3ED6F6AD7ED4F
:1037F000047A26EEA76A444BD3ED6F6A424BD3EDB1
:10380000647A76EEA76AC6EE267A77EE277A3E4B82
:10381000C3ED5E7A3C4B93ED5F7A3B4BD3ED647A1C
:1038200067EE276A384B93ED6F7A374BD3ED647AA6
:1038300077EE277A86EEA77A334BD3ED6F6AD7ED12
:10384000037A26EEA76A304BD3ED6F6A2E4BD3ED89
:10385000647A76EEA76AC6EE267A77EE277A2A4B46
:10386000C3ED5F7A284B93ED607A274BD3ED647AF2
:1038700067EE276A244B93ED6F7A234BD3ED647A7E
:1038800077EE277A86EEA77A1F4BD3ED6F6AD7EDD6
:10389000027A26EEA76A1C4BD3ED6F6A1A4BD3ED62
:1038A000647A76EEA76AC6EE267A77EE277A164B0A
:1038B000C3ED607A144B93ED5E7A134BD3ED5E7AD1
:1038C00027EE277A104BD3ED5F6A0F4BD3ED5F7A6B
:1038D00066EEA77A37EE277A0B4BD3ED606A0A4B78
:1038E000D3ED607A66EEA77A77EE277AB0EE670AB4
:1038F00000F0B6FFF0EE407A0B4BC3ED007A0023E8
:1039000087F827302CE000BF4007002000000000AF
:103910008096184B6F12833AB0090020B40900203A
:10392000B8090020808C0108BC09002097F82730D6
:10393000384A5E339B00134493ED007A364BD3ED47
:10394000007A344B9A6897F827309B00134467EE4F
:10395000277AC3ED007A97F82730013387F82730AC
:1039600097F82730022BE1D92A4B93ED5B7A294B4C
:10397000D3ED5B7A27EE277A264BD3ED5C6A254B95
:10398000D3ED5C7A66EEA77A37EE277A214BD3ED3A
:103990005D6A204BD3ED5D7A66EEA77A77EE277AE3
:1039A000B0EE670A00F05CFFB0EE407AF7EE006A16
:1039B000C6EE877A174BC3ED657A174B93ED007A05
:1039C000F7EE006AC6EE877A124BC3ED667A114BAA
:1039D000D3ED657A9FED117AF4EEC77AF1EE10FA25
:1039E00022D50C4BD3ED667A9FED0D7AF4EEC77AB3
:1039F000F1EE10FA18DD074BD3ED667A9FED097AE8
:103A0000F4EEC77AF1EE10FA0ED5024B012283F8DC
:103A100039210DE040070020BC0900209A99993E09
:103A2000CDCC1441CDCC2441C54B002283F83921A3
:103A3000C34B93ED6C7AC24BD3ED6F7AC04BD3F886
:103A4000183167EE277AC3ED007ABD4B93ED6C7A9F
:103A5000BB4BD3ED6F7ABA4BD3F818311C3367EEFA
:103A6000277AC3ED007AB64B93ED6C7AB44BD3ED65
:103A70006F7AB34BD3F81831383367EE277AC3ED3A
:103A8000007AAF4B93ED6C7AAD4BD3ED6F7AAC4BC4
:103A9000D3F81831543367EE277AC3ED007AA84B78
:103AA00093ED6D7AA64BD3ED6F7AA54BD3F8183111
:103AB000703367EE277AC3ED007AA14B93ED6D7AF0
:103AC0009F4BD3ED6F7A9E4BD3F818318C3367EE52
:103AD000277AC3ED007A9A4BD3F81C31984AD2F872
:103AE000B8211A60964BD3F81C311033944AD2F89F
:103AF000B8211A60924BD3F81C312033904AD2F887
:103B0000B8211A608F48FFF78DFA8D4B5B681B68F0
:103B10008B4AC2F850318A4B5B685B68884AC2F8AE
:103B20005431874B5B689B68854AC2F85831844B97
:103B30005B68DB68824AC2F85C31814B5B681B6959
:103B40007F4AC2F860317E4B5B685B697C4AC2F891
:103B500064317B4B4FF00002C3F86821784B93ED42
:103B6000547A774BD3ED577A27EE277A744BD3EDFF
:103B7000556A734BD3ED567A66EEA77A77EE277ABD
:103B800037EEA76A6E4B93ED547A6D4BD3ED547AB2
:103B900027EE277A6A4BD3ED556A694BD3ED557AF8
:103BA00066EEA77A77EE277A77EEA77AB7EE007AF5
:103BB00077EEC77AF0EE670AB0EE460A13F048FFD8
:103BC000F0EE407A9FED607A67EE877A5C4BC3ED4A
:103BD0006A7A5B4B93ED547A594BD3ED557A27EEC5
:103BE000277A574BD3ED566A554BD3ED577A66EE8D
:103BF000A77A77EE277A37EEA76A514B93ED547A7E
:103C00004F4BD3ED547A27EE277A4D4BD3ED576ABD
:103C10004B4BD3ED577A66EEA77A77EE277A77EE9D
:103C2000A77AB7EE007A77EEC77AF0EE670AB0EEC1
:103C3000460A13F00DFFF0EE407A9FED437A67EEEF
:103C4000877A3F4BC3ED697A3D4B93ED557A3C4BF8
:103C5000D3ED577A27EE277A394BD3ED546A384B98
:103C6000D3ED567A66EEA77A77EE677AB8EE007AE9
:103C700067EE877AB0EE670A13F0BEFEF0EE407A88
:103C80009FED317A67EE877A2D4BC3ED687A2C4B26
:103C900093ED6A7A2A4BD3ED767A77EE677A9FEDC9
:103CA0002B7AF4EEC77AF1EE10FA0ADD244BB3F961
:103CB000D4319BB2013B9BB21AB2214BA3F8D42161
:103CC00018E01F4B93ED6A7A1D4BD3ED767A77EEB1
:103CD000677A9FED1F7AF4EEC77AF1EE10FA09D5F4
:103CE000174BB3F9D4319BB201339BB21AB2144BC8
:103CF000A3F8D421124BB3F9D43107EE903AF8EE81
:103D0000E77A9FED147A27EE877A0D4BD3ED6A7A26
:103D100077EE277A0A4BC3ED6B7A094BD3F8A831BB
:103D2000074AC2F8D831064BD3E95223541C43F159
:103D30000005034BC3E9524500BF2837BD46B0BD5F
:103D40004007002044070020E12E65420000344374
:103D5000000034C30000B44380B584B000AF786085
:103D60007B68D3F8EC301B68A24A13607B68D3F8F9
:103D7000EC305B68A04A13607B68D3F8EC309B683A
:103D80009E4A13607B68D3F8EC30DB689C4A136072
:103D9000984B93ED007A974BD3ED007A27EE277A74
:103DA000954BD3ED006A944BD3ED007A66EEA77A7B
:103DB00037EE277A914BD3ED006A904BD3ED007A22
:103DC00066EEA77A37EE277A8D4BD3ED006A8C4BDF
:103DD000D3ED007A66EEA77A77EE277AB0EE670A1F
:103DE00000F03EFDF0EE407A864BC3ED007A0023F2
:103DF000FB7317E07B68D3F8EC20FB7B9B0013443C
:103E000093ED007A7F4BD3ED007A7B68D3F8EC20FA
:103E1000FB7B9B00134467EE277AC3ED007AFB7BA4
:103E20000133FB73FB7B032BE4D9774B93ED6F7A64
:103E3000714BD3ED007A27EE277A7B68D3F80031F7
:103E40001033F0EE006AC7EE267AC3ED007A6E4BAF
:103E500093ED6F7A694BD3ED007A27EE277A7B6872
:103E6000D3F800311433F0EE006AC7EE267AC3EDC2
:103E7000007A604BD3ED007AB1EE677A624BD3EDF6
:103E80006F7A27EE277A7B68D3F800312833F0EE7B
:103E9000006AC7EE267AC3ED007A5B4B93ED6F7A2A
:103EA000574BD3ED007A27EE277A7B68D3F80031A1
:103EB0002C33F0EE006AC7EE267AC3ED007A504B41
:103EC000D3ED007AB1EE677A4F4BD3ED6F7A27EEE0
:103ED000277A7B68D3F800314033F0EE006AC7EEF2
:103EE000267AC3ED007A434BD3ED007AB1EE677AC0
:103EF000454BD3ED6F7A27EE277A7B68D3F80031F4
:103F00004433F0EE006AC7EE267AC3ED007A3E4BEA
:103F100093ED6F7A394BD3ED007A27EE277A7B68E1
:103F2000D3F800315833F0EE006AC7EE267AC3EDBD
:103F3000007A314BD3ED007AB1EE677A324BD3ED94
:103F40006F7A27EE277A7B68D3F800315C33F0EE86
:103F5000006AC7EE267AC3ED007A7B68D3F8F830A2
:103F60007033D3ED006A284B93ED747A7B68D3F8F5
:103F7000F8307033C6EE877AC3ED007A7B68D3F8E9
:103F8000F8308C33D3ED006A1F4B93ED747A7B6865
:103F9000D3F8F8308C33C6EE877AC3ED007A7B68AD
:103FA000D3F8F8307033D3ED007A9FED187AF4EE41
:103FB000C77AF1EE10FA05DD7B68D3F8F83070337C
:103FC000134A1A607B68D3F8F8308C33D3ED007A4B
:103FD0009FED0E7AF4EEC77AF1EE10FA00DC05E000
:103FE0007B68D3F8F8308C33094A1A6000BF103769
:103FF000BD4680BDC0090020C4090020C8090020BA
:10400000CC090020D00900204007002000401C46B9
:1040100000401C4680B582B000AF78607B68D3F862
:10402000EC30D3ED007A77EEA77A4E4BC3ED007AF1
:104030007B68D3F8EC300433D3ED007A77EEA77ABF
:10404000494BC3ED007A7B68D3F8EC300833D3EDED
:10405000007A77EEA77A454BC3ED007A7B68D3F8F8
:10406000EC300C33D3ED007A77EEA77A404BC3EDFA
:10407000007A7B68D3F80C013E4B1B881A467B689C
:104080009B7B02FB03F37A68127B02FB03F31A4665
:10409000002114F0BFFA354BD3ED007A7B68D3F8DA
:1040A0000C31F1EE677AC3ED007A7B68D3F80C31FE
:1040B00004332F4A12681A602A4BD3ED007A7B68CA
:1040C000D3F80C310833F1EE677AC3ED007A7B68E0
:1040D000D3F80C310C33244A12681A607B68D3F889
:1040E0000C311833204A12681A607B68D3F80C31FF
:1040F0001C331C4A12681A607B68D3F80C312033D9
:104100001B4A12681A607B68D3F80C312433174AB3
:1041100012681A607B68D3F80C313033114A126888
:104120001A60114BD3ED007A7B68D3F80C3134332D
:10413000F1EE677AC3ED007A0C4BD3ED007A7B6821
:10414000D3F80C313833F1EE677AC3ED007A7B682F
:10415000D3F80C313C33064A12681A6000BF0837A6
:10416000BD4680BDD4090020D8090020DC0900200C
:10417000E009002034070020F0B585B000AF78607A
:104180007B6803F178027B6880331946104612F091
:1041900073FF03461A467B6883F8C8207B68B3F830
:1041A00078207B68A3F8A8207B68B3F85A207B6846
:1041B000A3F8AA207B6803F178007B6803F158011B
:1041C0007B68A8331A4613F01DF803461A467B682D
:1041D00083F8C8207B68B3F8A8207B68A3F8B020D8
:1041E0007B68B3F882207B68A3F8B2207B6803F178
:1041F000A8007B6803F180017B68B0331A4613F096
:1042000001F803461A467B6883F8C8207B68B3F838
:1042100090207B68A3F8A0207B68B3F892207B688D
:10422000A3F8A2207B6803F1B0007B6803F1900142
:104230007B68A0331A4613F08FF903461A467B6851
:1042400083F8C8207B6803F1A0027B68B03319466D
:10425000104613F077F803461A467B6883F8C820A7
:104260007B68D3F8EC301B68B54A13607B68D3F8E1
:10427000EC305B68B34A13607B68D3F8EC309B6822
:10428000B14A13607B68D3F8EC30DB68AF4A136047
:104290007B68B3F878207B68A3F8B8207B6801229C
:1042A000A3F8BA20A74B93ED007AA84BD3ED007A80
:1042B00027EE277AA24BD3ED006AA34BD3ED007A09
:1042C00066EEA77A77EE677A7B68D3F82C3177EEC3
:1042D000A77AC3ED007A9A4B93ED007A994BD3ED10
:1042E000007A27EE277A984BD3ED006A974BD3EDEF
:1042F000007A66EEA77A77EE277A7B68D3F82C31BE
:10430000043377EEA77AC3ED007A8D4B93ED007AF4
:104310008B4BD3ED007A27EE277A8A4BD3ED006AD8
:10432000884BD3ED007A66EEA77A37EE677A864B34
:10433000D3ED006A844BD3ED007A66EEA77A37EEB0
:10434000677A824BD3ED006A804BD3ED007A66EE3C
:10435000A77A7B68D3F82C31083377EE277AC3ED40
:10436000007A0023FB731BE07B68D3F82C21FB7BD6
:104370009B001344D3ED007AF0EEE77AFE7BB0EEBB
:10438000670A13F00DFBF0EE407A714A06F1600304
:104390009B0013440433C3ED007AFB7B0133FB73B2
:1043A000FB7B022BE0D97B68B3F848207B68A3F83D
:1043B000C0207B680122A3F8C2207B6803F148007B
:1043C0007B6803F1B8017B68C0331A4612F0B0FE77
:1043D00003461A467B6883F8C8207B68B3F8C02080
:1043E0007B68A3F8A8207B680122A3F8AA207B6839
:1043F00003F1B0007B6803F1C0017B68A8331A4663
:1044000012F000FF03461A467B6883F8C8207B68D9
:104410000122A3F8B8207B68B3F8C0207B68A3F81A
:10442000BA207B6803F1C0027B68B8331946104696
:1044300012F022FE03461A467B6883F8C8207B6888
:1044400003F1B8007B68A833424A194612F0DAFE3D
:1044500003461A467B6883F8C8203D4B93ED727A79
:104460003B4BD3ED737AF6EE006A67EEA67AB4EEB4
:10447000E77AF1EE10FA03D5354B012283F83821A3
:10448000334B93ED727A324BD3ED737AB4EEE77A15
:10449000F1EE10FA62DD2E4B93F83831002B5DD02F
:1044A0002B4B93F83931002B09D0294BD3E95023FA
:1044B000541C43F10005264BC3E9504506E024494E
:1044C0004FF000024FF00003C1E95023204BD3E925
:1044D0005023332A73F1000308D31D4B002283F8C5
:1044E00038217B68002283F82C2070E07B68D3F8A9
:1044F000E8007B68D3F8EC10174B1B881A467B68E2
:104500001B7B02FB03F31A4614F046F97B68D3F8D1
:10451000F8007B68D3F8FC100F4B1B881A467B68A9
:104520001B7B02FB03F37A68127B02FB03F31A4640
:1045300014F032F97B68012283F82C205AE100BF85
:10454000E4090020E8090020EC090020F00900201F
:10455000400700200009002034070020A74B93EDFE
:10456000727AA64BD3ED737ADFEDA56A67EEA67A71
:10457000B4EEE77AF1EE10FA19DDA04B93F838317A
:10458000002B14D09D4B93ED737A9C4BD3ED727A34
:1045900077EE676A994BD3ED737A9FED9A7A27EE9F
:1045A000877AC6EE877A954BC3ED677A04E0934B22
:1045B0004FF07E52C3F89C2190494FF000024FF01B
:1045C0000003C1E950237B68002283F82C207B681C
:1045D000B3F858207B68A3F8A8207B68B3F8822042
:1045E0007B68A3F8AA207B6803F158007B6803F17D
:1045F00080017B68A8331A4612F004FE03461A466F
:104600007B6883F8C8207B6803F1A8007B6803F10E
:10461000B0017B6898331A4612F0F4FD03461A463F
:104620007B6883F8C8200023BB7317E07B68D3F84E
:104630001C21BB7B9B00134493ED007A6F4BD3EDA1
:10464000677A7B68D3F81C21BB7B9B00134467EE21
:10465000277AC3ED007ABB7B0133BB73BA7B7B68DF
:10466000B3F8983019467B68B3F89A3001FB03F32E
:104670009A42DBDB04237B7334E000233B732BE0A3
:104680007B68D3F81C117A7B13465B001A443B7B92
:1046900013449B000B4493ED007A7B7B043B574A09
:1046A00060339B0013440433D3ED006A9FED566AD8
:1046B000C6EE867A7B68D3F81C117A7B13465B00C2
:1046C0001A443B7B13449B000B4467EE277AC3EDEF
:1046D000007A3B7B01333B733B7B022BD0D97B7B46
:1046E00001337B737B7B052BC7D97B68B3F898209C
:1046F0007B68A3F8B8207B680122A3F8BA207B6806
:1047000003F198007B6803F1C0017B68B8331A4657
:1047100012F078FD03461A467B6883F8C820374BB1
:1047200093F83831002B4ED00423FB7248E07B68AD
:10473000D3F8BC20FB7A9B00134493ED007A2F4BF7
:10474000D3ED6F7ADFED316A67EEA67AB4EEE77AE1
:10475000F1EE10FA0EDD294BD3ED6F7A7B68D3F8BA
:10476000BC20FB7A9B0013449FED287A67EE877A82
:10477000C3ED007A7B68D3F8BC20FB7A9B0013441E
:1047800093ED007A1D4BD3ED6F7ADFED216A67EE72
:10479000A67AB4EEE77AF1EE10FA0ED5174BD3ED08
:1047A0006F7A7B68D3F8BC20FB7A9B0013449FEDA3
:1047B000187A67EE877AC3ED007AFB7A0133FB72D1
:1047C000FB7A052BB3D97B68D3F8BC300C334FF0A0
:1047D00000021A607B6803F138007B6803F1B801BE
:1047E0007B6830331A4612F0B7FE03461A467B68E0
:1047F00083F8C8201437BD46F0BD00BF4007002035
:10480000CDCCCC3D6666663FDA0FC93F0AD7233C64
:104810000AD723BC80B582B000AF78607B68D3F83C
:10482000F830902219460B4813F0B6FF7B68D3F896
:104830001C3148221946084813F0AEFF7B68D3F8B4
:104840000C3148221946054813F0A6FF00BF08376F
:10485000BD4680BD0000002020090020680900201E
:1048600080B487B000AF87ED010AD7ED017AB6EECC
:10487000007A67EE877AC7ED057A7B683B6107F1BE
:1048800010031B68FB60FB685A10124B9B1AFB60FD
:1048900007F10C031B683B6197ED047AD7ED057AAD
:1048A00027EE277AD7ED047A67EE277AB7EE087AF3
:1048B00037EE677AD7ED047A67EE277AC7ED047A88
:1048C0003B6907EE903AB0EE670A1C37BD465DF8CB
:1048D000047B7047865A375F80B485B000AF87EDA0
:1048E000030AC7ED020A87ED011A97ED037AD7EDA7
:1048F000027AB4EEE77AF1EE10FA01D5BB680BE06C
:1049000097ED037AD7ED017AB4EEE77AF1EE10FA7B
:1049100001DD7B6800E0FB6807EE903AB0EE670AC5
:104920001437BD465DF8047B7047000080B483B047
:1049300000AF87ED010AD7ED017AFDEEE77A17EEB9
:10494000902A134B1A60124B1B6807EE903AF8EE50
:10495000E77A97ED017A77EE677A0E4BC3ED007A2E
:104960000C4BD3ED007AB6EE007AF4EEC77AF1EE96
:1049700010FA04DD064B1B680133054A1360044B33
:104980001B6818460C37BD465DF8047B704700BFB6
:10499000F4090020F809002080B58AB000AF002398
:1049A0007B610123BB610023FB614FF410733B600B
:1049B00044F2C0037B6044F2E003BB6000233B6130
:1049C00001233B623B461946274801F039FF034665
:1049D000002B01D000F0A1FE0E237B610023BB6100
:1049E0004FF400533B604FF47E43BB6042F2E01350
:1049F0007B604FF47E43FB6001233B613B461946DD
:104A00001A4801F01DFF0346002B01D000F085FE7F
:104A10000F237B610123BB610023FB614FF4007313
:104A20003B6044F240037B6001233B6101233B6216
:104A30003B4619460D4801F003FF0346002B01D009
:104A400000F06BFE084801F0DBFF0221064802F08F
:104A50000DFA064801F0D4FF1021044802F006FACE
:104A600000BF2837BD4680BD580A0020800A0020BC
:104A700080B487B000AFF860B9601346FB80FB6874
:104A8000002B13D14FF6FF7316E0FB685A1CFA6037
:104A90001B78FB75FB881B0A9AB2F988FB7D4B409B
:104AA000DBB2084931F813305340FB80BB685A1E13
:104AB000BA60002BE9D1FB8818461C37BD465DF86B
:104AC000047B7047108D010880B584B000AF78601A
:104AD00039600023FB817B68002B02D03B68022BEE
:104AE00001D8002320E03B68023B114A1288194696
:104AF0007868FFF7BDFF0346FB81FB89DBB23A68AC
:104B0000023A79680A44127893420CD1FB891B0A55
:104B10009BB2DBB23A68013A79680A441278934250
:104B200001D1012300E0002318461037BD4680BDA7
:104B30009000002080B483B000AF114B1B78DBB233
:104B4000002B16D10E4B01221A700E4B5B687B6056
:104B50007A680D4B1B689A4204D20C4B1B680133D8
:104B60000A4A1360074B5B68074A1360044B002234
:104B70001A7000BF0C37BD465DF8047B704700BF5C
:104B8000200A0020001000E0140A0020100A002073
:104B900080B582B000AF7860164BDB68154A43F0F1
:104BA0008073D360144B00225A60134B1B68124A67
:104BB00043F0010313607B68104A02FB03F3104AC1
:104BC00013600F4B1B680F4AA2FB03239B090E4A7D
:104BD00013600B4B1B680D4AA2FB03239B0C0C4A72
:104BE00013600C4B00221A60FFF7A4FF00BF0837C8
:104BF000BD4680BDF0ED00E0001000E040420F0037
:104C0000040A0020D34D6210080A002083DE1B43F3
:104C10000C0A0020100A002080B584B000AF786034
:104C2000104B5B68BB60BA687B681B68D31A07EEE1
:104C3000903AF8EE676A0C4B1B6807EE903AB8EEB4
:104C4000677AC6EE877AC7ED037ABA687B681A601E
:104C5000FFF770FFFB6807EE903AB0EE670A103777
:104C6000BD4680BD001000E0040A00202DE9B04FD1
:104C700098B000AF5E4B5B68FB65FFF75BFF5D4B79
:104C80001B6800229846914642464B464FF0000072
:104C90004FF00001D90741EA5201D00702460B4606
:104CA000B2EB080463EB090523193B6045EB0503F0
:104CB0007B60D7E9004514EB080A45EB090BFB6D57
:104CC0000022BB64FA64D7E912120B461AEB030305
:104CD0003B6413464BEB03037B64474BD7E910124D
:104CE000C3E90012444BD3E90001444B1B68002286
:104CF000BB63FA63D7E90E23FBF738FF02460B4686
:104D0000104619463E4BC3E900013B4BD3E9004531
:104D10003A4B1B6800223B637A63394BD3E900238B
:104D2000D7E90C89494602FB01F0414601FB03F13A
:104D300001444046A0FB02237B6513463B657B6D27
:104D4000CB187B65D7E914120B46E31ABB621346F6
:104D500065EB0303FB622B4BD7E90A12C3E9001290
:104D6000274BD3E90023284B1A60264BD3E90001D7
:104D7000264B1B6800223B627A62D7E90823FBF7C7
:104D8000F5FE02460B4692B21F4B9A801D4BD3E9AB
:104D900000231D49898808461C49096800FB01F168
:104DA0000020B961F861D7E906452146511A3961F9
:104DB000294663EB01037B61154BD7E90412C3E974
:104DC0000012134BD3E90001124B1B680022BB6099
:104DD000FA60D7E90223FBF7C9FE02460B4692B2FE
:104DE000094BDA8000BF6037BD46BDE8B08F00BF19
:104DF000001000E0100A0020180A0020040A002019
:104E0000280A0020300A0020FC090020080A00209F
:104E1000380A00200C0A002080B582B000AFFFF7EE
:104E200025FF144B1B6807EE903AB8EE677A114BDA
:104E30009B8807EE903AF8EEE77ADFED0F6A67EEAF
:104E4000A67A37EE277A0B4BDB8807EE903AF8EE1E
:104E5000E77ADFED0A6A67EEA67A77EE277AC7ED82
:104E6000017A7B6807EE903AB0EE670A0837BD46D4
:104E700080BD00BFFC0900206F12833ABD37863524
:104E800080B485B000AF87ED010A124B5B68FB6010
:104E90007B68BB6000BF0F4B5A68FB68D31A07EEF4
:104EA000903AB8EE677A0C4B1B6807EE903AF8EE32
:104EB000676AD7ED027A66EEA77AB4EEE77AF1EE8A
:104EC00010FAE8D400BF00BF1437BD465DF8047B7C
:104ED000704700BF001000E0040A002080B582B0D7
:104EE00000AF78600B467B807B681B680D4A93425D
:104EF00003D10D4B1B68984710E07B681B680B4A79
:104F0000934203D1084B9B68984707E07B681B6876
:104F1000074A934202D1044B5B69984700BF0837A8
:104F2000BD4680BD00100140400A002000480040FE
:104F30000014014080B500AF174B184A1A60164B99
:104F400003225A60144B00229A60134B0022DA604D
:104F5000114B4FF4A0221A610F4B4FF4C0025A615B
:104F60000D4B00221A760C4B01225A760A4B002276
:104F70009A76094B0122DA76074B00221A77064B04
:104F800000225A77044801F05FFB0346002B01D052
:104F900000F0C3FB00BF80BD580A00200064004041
:104FA00080B500AF174B184A1A60164B03225A609F
:104FB000144B00229A60134B0022DA60114B4FF41D
:104FC000A0221A610F4B4FF4C0025A610D4B002210
:104FD0001A760C4B01225A760A4B00229A76094B1C
:104FE0000122DA76074B00221A77064B00225A7705
:104FF000044801F029FB0346002B01D000F08DFB93
:1050000000BF80BD800A00200068004080B58CB0E1
:1050100000AF786007F11C0300221A605A609A60A2
:10502000DA601A617B681B68524A934245D1524B41
:105030001B680133504A13604F4B1B68012B0DD185
:105040000023BB614D4B1B6C4C4A43F0007313644F
:105050004A4B1B6C03F00073BB61BB6900237B618F
:10506000464B1B6B454A43F008031363434B1B6BD2
:1050700003F008037B617B690323FB6102233B622E
:1050800000237B620323BB620923FB6207F11C033D
:1050900019463B4802F01AFE00220521142002F0B6
:1050A000E9F9142002F002FA00220521152002F08D
:1050B000E1F9152002F0FAF957E07B681B68314AE4
:1050C000934252D100233B612C4B1B6C2B4A43F083
:1050D00080631364294B1B6C03F080633B613B6965
:1050E000254B1B680133244A1360234B1B68012B9B
:1050F0000DD10023FB60214B1B6C204A43F0007351
:1051000013641E4B1B6C03F00073FB60FB680023F1
:10511000BB601A4B1B6B194A43F002031363174B16
:105120001B6B03F00203BB60BB686023FB610223BF
:105130003B6200237B620323BB620923FB6207F10E
:105140001C031946104802F0C1FD00220521402031
:1051500002F090F9402002F0A9F900220521412037
:1051600002F088F9412002F0A1F900BF3037BD46B6
:1051700080BD00BF00640040A80A00200038024043
:10518000000C0240006800400004024080B582B07C
:1051900000AF00237B60234B1B6B224A43F40013B8
:1051A0001363204B1B6B03F400137B607B680023AD
:1051B0003B601C4B1B6B1B4A43F480031363194B6E
:1051C0001B6B03F480033B603B68002205210C202D
:1051D00002F050F90C2002F069F900220521382074
:1051E00002F048F9382002F061F900220521392047
:1051F00002F040F9392002F059F9002205213A2045
:1052000002F038F93A2002F051F9002205213B2042
:1052100002F030F93B2002F049F900BF0837BD46E3
:1052200080BD00BF0038024080B485B000AFF86098
:10523000B9607A60FB68074A1A60BB68064A1A6060
:105240007B6880221A6000BF1437BD465DF8047B7E
:10525000704700BFD00A0020480C0020B0B5C0B095
:1052600000AF574B07F1E4041D460FCD0FC495E87E
:10527000070084E8070007F1E403002118460AF05C
:1052800038FE03464F4A13604F4B07F1C8041D46D2
:105290000FCD0FC495E8070084E8070007F1C803A5
:1052A000002118460AF025FE0346484A1360484B81
:1052B00007F1AC041D460FCD0FC495E8070084E844
:1052C000070007F1AC03002118460AF012FE03465E
:1052D000404A1360404B07F190041D460FCD0FC4A8
:1052E00095E8070084E8070007F1900300211846BD
:1052F0000AF0FFFD0346394A1360394B07F1740485
:105300001D460FCD0FC495E8070084E8070007F19C
:105310007403002118460AF0ECFD0346314A13607D
:10532000314B07F158041D460FCD0FC495E8070017
:1053300084E8070007F15803002118460AF0D9FD58
:1053400003462A4A13602A4B07F13C041D460FCD41
:105350000FC495E8070084E8070007F13C0300212B
:1053600018460AF0C6FD0346224A1360224B07F195
:1053700020041D460FCD0FC495E8070084E8070000
:1053800007F12003002118460AF0B3FD03461B4A2B
:1053900013601B4B3C1D1D460FCD0FC495E8070045
:1053A00084E807003B1D002118460AF0A2FD0346D1
:1053B000144A136000BF07F58077BD46B0BD00BF3B
:1053C000CC8A0108AC0A0020F08A0108B00A00204B
:1053D000188B0108B40A0020408B0108B80A00208D
:1053E000688B0108BC0A0020948B0108C00A0020C9
:1053F000BC8B0108C40A0020E48B0108C80A002005
:105400000C8C0108CC0A002080B582B000AF786017
:1054100001200AF0BAFDFBE780B58CB000AF07F1C0
:105420001C0300221A605A609A60DA601A61002335
:10543000BB61554B1B6B544A43F002031363524B41
:105440001B6B03F00203BB61BB6900237B614E4B06
:105450001B6B4D4A43F0400313634B4B1B6B03F034
:1054600040037B617B6900233B61474B1B6B464AD2
:1054700043F001031363444B1B6B03F001033B61D7
:105480003B690023FB60404B1B6B3F4A43F0080322
:1054900013633D4B1B6B03F00803FB60FB680023A9
:1054A000BB60394B1B6B384A43F004031363364B24
:1054B0001B6B03F00403BB60BB6800237B60324BB3
:1054C0001B6B314A43F0800313632F4B1B6B03F0BC
:1054D00080037B607B6800233B602B4B1B6B2A4A5D
:1054E00043F010031363284B1B6B03F010033B6066
:1054F0003B6800224FF4E051244802F083FD012272
:105500001021234802F07EFD01220121214802F0F2
:1055100079FD4FF4E053FB6101233B6200237B6282
:105520000023BB6207F11C031946184802F0CEFBAA
:105530000123FB6100233B6200237B6207F11C0314
:105540001946134802F0C2FB1023FB6101233B62A2
:1055500000237B620223BB6207F11C0319460C483F
:1055600002F0B4FB0123FB6101233B6200237B6259
:105570000223BB6207F11C031946064802F0A6FB92
:1055800000BF3037BD4680BD00380240001C0240DD
:10559000000002400004024080B500AF094B0A4AF7
:1055A0001A60084B02225A60064B4FF4FA629A6066
:1055B000044802F05AFD0346002B01D000F0ADF87C
:1055C00000BF80BD480E00200030004080B500AF15
:1055D00000F0D4FF00F026F8FFF71EFFFFF7D6FD1E
:1055E000FFF7A8FCFFF7DCFC00F0BCFD00F09AF828
:1055F00000F066FC00F0EEFB00F08AFD00F0DEFD3E
:1056000000F048FB10F08EFBFFF7C6FF00210448B6
:1056100005F082F8FFF722FE0AF064FCFEE700BF07
:10562000B80F002080B594B000AF07F120033022FE
:105630000021184612F0EEFF07F10C0300221A6059
:105640005A609A60DA601A610023BB60294B1B6CB8
:10565000284A43F080531364264B1B6C03F080539D
:10566000BB60BB6800237B60234B1B68224A43F46A
:1056700080431360204B1B6803F480437B607B688E
:1056800009233B624FF480337B6201237B63022357
:10569000BB634FF48003FB6306233B64A8237B6456
:1056A0000223BB640723FB6407F12003184603F0C1
:1056B00081FF0346002B01D000F02FF80F23FB6081
:1056C00002233B6100237B614FF4A053BB614FF485
:1056D0008053FB6107F10C030521184604F0E2F941
:1056E0000346002B01D000F018F800BF5037BD462C
:1056F00080BD00BF003802400070004080B582B01D
:1057000000AF78607B681B68B3F1804F01D100F077
:1057100057FF00BF0837BD4680BD80B400AF72B6EA
:1057200000BFFEE780B500AF174B184A1A60164B52
:105730004FF482725A60144B00229A60124B00227E
:10574000DA60114B02221A610F4B01225A610E4B93
:105750004FF400729A610C4B1022DA610A4B00225E
:105760001A62094B00225A62074B00229A62064BCA
:105770000A22DA62044804F0A7FB0346002B01D09A
:10578000FFF7CBFF00BF80BD540E0020003001406A
:1057900080B58AB000AF786007F1140300221A6068
:1057A0005A609A60DA601A617B681B68574A9342B4
:1057B00040F0A88000233B61554B5B6C544A43F496
:1057C00080535364524B5B6C03F480533B613B69E1
:1057D0000023FB604E4B1B6B4D4A43F002031363E7
:1057E0004B4B1B6B03F00203FB60FB680023BB60A9
:1057F000474B1B6B464A43F001031363444B1B6B3F
:1058000003F00103BB60BB6818237B610223BB610B
:105810000023FB6103233B6205237B6207F1140332
:1058200019463C4802F052FA80237B610223BB6197
:105830000023FB6103233B6205237B6207F1140312
:105840001946354802F042FA344B354A1A60334B58
:105850004FF0C0625A60314B00229A602F4B0022F9
:10586000DA602E4B4FF480621A612C4B00225A6191
:105870002A4B00229A61294B0022DA61274B4FF410
:1058800040321A62254B00225A62244801F01CFE65
:105890000346002B01D0FFF740FF7B681F4ADA6404
:1058A0001E4A7B6893631F4B1F4A1A601D4B4FF0C3
:1058B000C0625A601B4B40229A601A4B0022DA6089
:1058C000184B4FF480621A61164B00225A61154B37
:1058D00000229A61134B0022DA61124B4FF400321E
:1058E0001A62104B00225A620E4801F0EDFD034689
:1058F000002B01D0FFF711FF7B680A4A9A64094A1E
:105900007B68936300BF2837BD4680BD00300140EF
:10591000003802400004024000000240AC0E0020AB
:10592000106402400C0F00205864024080B582B021
:1059300000AF00237B60124B5B6C114A43F4804341
:1059400053640F4B5B6C03F480437B607B680023E4
:105950003B600B4B1B6C0A4A43F080531364084BAB
:105960001B6C03F080533B603B6800220F216FF0FB
:10597000010001F07FFD00BF0837BD4680BD00BFBC
:105980000038024080B58EB000AF78600023FB6223
:105990000023BB620023FB60344B1B6C334A43F093
:1059A00001031364314B1B6C03F00103FB60FB68C4
:1059B00007F1100207F114031146184604F052FAD9
:1059C0003B6AFB62FB6A002B03D104F023FA786385
:1059D00004E004F01FFA03465B007B637B6B244A00
:1059E000A2FB03239B0C013BBB62224B4FF0804286
:1059F0001A60204B40F2E732DA601E4ABB6A5360FD
:105A00001C4B00221A611B4B00229A60194B00228A
:105A10009A61184804F066FD034687F8333097F81A
:105A20003330002B1BD1134804F0ACFD034687F83C
:105A3000333097F83330002B11D11C2001F036FDA4
:105A40007B680F2B08D8002279681C2001F012FD1A
:105A5000094A7B68136002E0012387F8333097F826
:105A6000333018463837BD4680BD00BF003802408D
:105A700083DE1B436C0F00209800002080B400AF31
:105A8000FEE780B400AFFEE780B400AFFEE780B46D
:105A900000AFFEE780B400AFFEE780B400AF00BF08
:105AA000BD465DF8047B704780B500AF024801F049
:105AB000A3FE00BF80BD00BFC811002080B500AFAD
:105AC000024801F0F9F900BF80BD00BF580A00206C
:105AD00080B500AF024801F0EFF900BF80BD00BF04
